:020000040800F2
:1000000000500020552B0008652900086B290008C6
:1000100071290008772900087D29000800000000E8
:10002000000000000000000000000000832900081C
:100030008F290008000000009B290008A72900085C
:100040009D2B00089D2B00089D2B00089D2B000870
:100050009D2B00089D2B00089D2B00089D2B000860
:100060009D2B00089D2B00089D2B0008B52900083A
:100070009D2B00089D2B00089D2B00089D2B000840
:100080009D2B00089D2B00089D2B00089D2B000830
:100090009D2B00089D2B00089D2B00089D2B000820
:1000A0009D2B00089D2B00089D2B00089D2B000810
:1000B0009D2B00089D2B00089D2B00089D2B000800
:1000C0009D2B00089D2B00089D2B00089D2B0008F0
:1000D0009D2B00089D2B00089D2B00089D2B0008E0
:1000E0009D2B00089D2B00089D2B000800000000A0
:1000F0000000000000000000000000000000000000
:0C01000000000000000000005FF808F1A3
:1001100010B5054C237833B9044B13B10448AFF341
:1001200000800123237010BDEC01002000000000BE
:10013000CCA4000808B5034B1BB103490348AFF337
:10014000008008BD00000000F0010020CCA40008E1
:10015000034613F8012B002AFBD1181A0138704707
:1001600081F0004102E000BF83F0004330B54FEA68
:1001700041044FEA430594EA050F08BF90EA020FD5
:100180001FBF54EA000C55EA020C7FEA645C7FEA68
:10019000655C00F0E2804FEA5454D4EB5555B8BF8B
:1001A0006D420CDD2C4480EA020281EA030382EAFC
:1001B000000083EA010180EA020281EA0303362D8E
:1001C00088BF30BD11F0004F4FEA01314FF4801C61
:1001D0004CEA113102D0404261EB410113F0004F73
:1001E0004FEA03334CEA133302D0524263EB43032A
:1001F00094EA050F00F0A780A4F10104D5F1200EC8
:100200000DDB02FA0EFC22FA05F2801841F1000122
:1002100003FA0EF2801843FA05F359410EE0A5F1F6
:1002200020050EF1200E012A03FA0EFC28BF4CF027
:10023000020C43FA05F3C01851EBE37101F00045DD
:1002400007D54FF0000EDCF1000C7EEB00006EEBEA
:100250000101B1F5801F1BD3B1F5001F0CD3490874
:100260005FEA30004FEA3C0C04F101044FEA4452CB
:1002700012F5800F80F09A80BCF1004F08BF5FEA52
:10028000500C50F1000041EB045141EA050130BD32
:100290005FEA4C0C404141EB0101013C28BFB1F544
:1002A000801FE9D291F0000F04BF01460020B1FA8F
:1002B00081F308BF2033A3F10B03B3F120020CDA62
:1002C0000C3208DD02F1140CC2F10C0201FA0CF040
:1002D00021FA02F10CE002F11402D8BFC2F1200CA5
:1002E00001FA02F120FA0CFCDCBF41EA0C0190405B
:1002F000E41AA2BF01EB0451294330BD6FEA0404A4
:100300001F3C1CDA0C340EDC04F11404C4F120028E
:1003100020FA04F001FA02F340EA030021FA04F3A0
:1003200045EA030130BDC4F10C04C4F1200220FAF7
:1003300002F001FA04F340EA0300294630BD21FA35
:1003400004F0294630BD94F0000F83F4801306BFFB
:1003500081F480110134013D4EE77FEA645C18BFEF
:100360007FEA655C29D094EA050F08BF90EA020F86
:1003700005D054EA000C04BF1946104630BD91EA7E
:10038000030F1EBF0021002030BD5FEA545C05D181
:100390004000494128BF41F0004130BD14F58004C0
:1003A0003CBF01F5801130BD01F0004545F0FE4134
:1003B00041F470014FF0000030BD7FEA645C1ABF69
:1003C000194610467FEA655C1CBF0B46024650EAA0
:1003D000013406BF52EA033591EA030F41F40021CC
:1003E00030BD00BF90F0000F04BF0021704730B552
:1003F0004FF4806404F132044FF000054FF0000127
:1004000050E700BF90F0000F04BF0021704730B5E7
:100410004FF4806404F1320410F0004548BF4042BC
:100420004FF000013EE700BF42004FEAE2014FEA11
:1004300031014FEA02701FBF12F07F4393F07F4FEC
:1004400081F06051704732F07F4208BF704793F0EF
:100450007F4F04BF41F40021704730B54FF4607402
:1004600001F0004521F000411CE700BF50EA010205
:1004700008BF704730B54FF000050AE050EA0102AE
:1004800008BF704730B511F0004502D5404261EB1E
:1004900041014FF4806404F132045FEA915C3FF45F
:1004A000D8AE4FF003025FEADC0C18BF03325FEAFC
:1004B000DC0C18BF033202EBDC02C2F1200300FAAD
:1004C00003FC20FA02F001FA03FE40EA0E0021FAD2
:1004D00002F11444BDE600BF70B54FF0FF0C4CF4C0
:1004E000E06C1CEA11541DBF1CEA135594EA0C0F72
:1004F00095EA0C0F00F0DEF82C4481EA030621EAAD
:100500004C5123EA4C5350EA013518BF52EA0335E7
:1005100041F4801143F4801338D0A0FB02CE4FF099
:100520000005E1FB02E506F00042E0FB03E54FF0C9
:100530000006E1FB03569CF0000F18BF4EF0010EC1
:10054000A4F1FF04B6F5007F64F5407404D25FEABD
:100550004E0E6D4146EB060642EAC62141EA555170
:100560004FEAC52040EA5E504FEACE2EB4F1FD0CB2
:1005700088BFBCF5E06F1ED8BEF1004F08BF5FEA30
:10058000500E50F1000041EB045170BD06F00046E2
:1005900046EA010140EA020081EA0301B4EB5C048F
:1005A000C2BFD4EB0C0541EA045170BD41F4801187
:1005B0004FF0000E013C00F3AB8014F1360FDEBFAC
:1005C000002001F0004170BDC4F10004203C35DA88
:1005D0000C341BDC04F11404C4F1200500FA05F30B
:1005E00020FA04F001FA05F240EA020001F00042AC
:1005F00021F0004110EBD37021FA04F642EB060122
:100600005EEA430E08BF20EAD37070BDC4F10C044B
:10061000C4F1200500FA04F320FA05F001FA04F20F
:1006200040EA020001F0004110EBD37041F10001FB
:100630005EEA430E08BF20EAD37070BDC4F1200506
:1006400000FA05F24EEA020E20FA04F301FA05F26E
:1006500043EA020321FA04F001F0004121FA04F216
:1006600020EA020000EBD3705EEA430E08BF20EAE6
:10067000D37070BD94F0000F0FD101F00046400020
:1006800041EB010111F4801F08BF013CF7D041EAA2
:10069000060195F0000F18BF704703F000465200A6
:1006A00043EB030313F4801F08BF013DF7D043EA77
:1006B0000603704794EA0C0F0CEA135518BF95EA2D
:1006C0000C0F0CD050EA410618BF52EA4306D1D1B4
:1006D00081EA030101F000414FF0000070BD50EAD3
:1006E000410606BF1046194652EA430619D094EA5D
:1006F0000C0F02D150EA013613D195EA0C0F05D147
:1007000052EA03361CBF104619460AD181EA03019A
:1007100001F0004141F0FE4141F470014FF0000052
:1007200070BD41F0FE4141F4780170BD70B54FF0ED
:10073000FF0C4CF4E06C1CEA11541DBF1CEA13556D
:1007400094EA0C0F95EA0C0F00F0A7F8A4EB05044F
:1007500081EA030E52EA03354FEA013100F0888046
:100760004FEA03334FF0805545EA131343EA12630F
:100770004FEA022245EA111545EA10654FEA0026C4
:100780000EF000419D4208BF964244F1FD0404F57D
:10079000407402D25B084FEA3202B61A65EB0305D9
:1007A0005B084FEA32024FF480104FF4002CB6EB96
:1007B000020E75EB030E22BFB61A754640EA0C0016
:1007C0005B084FEA3202B6EB020E75EB030E22BF56
:1007D000B61A754640EA5C005B084FEA3202B6EB97
:1007E000020E75EB030E22BFB61A754640EA9C0056
:1007F0005B084FEA3202B6EB020E75EB030E22BF26
:10080000B61A754640EADC0055EA060E18D04FEAE3
:10081000051545EA16754FEA06164FEAC30343EA83
:1008200052734FEAC2025FEA1C1CC0D111F4801F50
:100830000BD141EA00014FF000004FF0004CB6E749
:1008400011F4801F04BF01430020B4F1FD0C88BFE8
:10085000BCF5E06F3FF6AFAEB5EB030C04BFB6EBF3
:10086000020C5FEA500C50F1000041EB045170BDE6
:100870000EF0004E4EEA113114EB5C04C2BFD4EB13
:100880000C0541EA045170BD41F480114FF0000E97
:10089000013C90E645EA060E8DE60CEA135594EA13
:1008A0000C0F08BF95EA0C0F3FF43BAF94EA0C0F16
:1008B0000AD150EA01347FF434AF95EA0C0F7FF48B
:1008C00025AF104619462CE795EA0C0F06D152EADF
:1008D00003353FF4FDAE1046194622E750EA4106C3
:1008E00018BF52EA43067FF4C5AE50EA41047FF4D4
:1008F0000DAF52EA43057FF4EBAE12E74FF0FF3C39
:1009000006E000BF4FF0010C02E000BF4FF0010C09
:100910004DF804CD4FEA410C7FEA6C5C4FEA430C82
:1009200018BF7FEA6C5C1BD001B050EA410C0CBFD1
:1009300052EA430C91EA030F02BF90EA020F002033
:10094000704710F1000F91EA030F58BF994208BF9A
:1009500090422CBFD8176FEAE37040F00100704757
:100960004FEA410C7FEA6C5C02D150EA013C07D1AE
:100970004FEA430C7FEA6C5CD6D152EA033CD3D0F9
:100980005DF8040B704700BF8446104662468C46F3
:100990001946634600E000BF01B5FFF7B7FF002826
:1009A00048BF10F1000F01BD4DF808EDFFF7F4FF4F
:1009B0000CBF012000205DF808FB00BF4DF808EDDA
:1009C000FFF7EAFF34BF012000205DF808FB00BFFD
:1009D0004DF808EDFFF7E0FF94BF012000205DF81F
:1009E00008FB00BF4DF808EDFFF7CEFF94BF0120D4
:1009F00000205DF808FB00BF4DF808EDFFF7C4FFCD
:100A000034BF012000205DF808FB00BF4FEA410C15
:100A10007FEA6C5C02D150EA013C0AD14FEA430CF8
:100A20007FEA6C5C02D152EA033C02D14FF0000035
:100A300070474FF0010070474FEA410212F5001273
:100A400015D211D56FF47873B3EB625212D94FEA15
:100A5000C12343F0004343EA505311F0004F23FAFF
:100A600002F018BF404270474FF00000704750EA54
:100A7000013005D111F0004008BF6FF00040704711
:100A80004FF00000704700BF4A0011D212F500126B
:100A900011D20DD56FF47873B3EB62520ED44FEAD6
:100AA000C12343F0004343EA505323FA02F0704756
:100AB0004FF00000704750EA013002D14FF0FF3094
:100AC00070474FF0000070474FEA4102B2F1E04337
:100AD00024BFB3F5001CDCF1FE5C0DD901F0004C25
:100AE0004FEAC0024CEA5070B2F1004F40EB830075
:100AF00008BF20F00100704711F0804F21D113F1A1
:100B00003872BCBF01F00040704741F480114FEAD9
:100B10005252C2F11802C2F1200C10FA0CF320FA62
:100B200002F018BF40F001004FEAC1234FEAD3237F
:100B300003FA0CFC40EA0C0023FA02F34FEA4303E9
:100B4000CCE77FEA625307D150EA01331EBF4FF072
:100B5000FE4040F44000704701F0004040F0FE408D
:100B600040F40000704700BF80F0004002E000BF8A
:100B700081F0004142001FBF5FEA410392EA030F88
:100B80007FEA226C7FEA236C6AD04FEA1262D2EBD2
:100B90001363C1BFD218414048404140B8BF5B42D7
:100BA000192B88BF704710F0004F40F4000020F070
:100BB0007F4018BF404211F0004F41F4000121F086
:100BC0007F4118BF494292EA030F3FD0A2F10102D0
:100BD00041FA03FC10EB0C00C3F1200301FA03F10E
:100BE00000F0004302D5494260EB4000B0F5000F31
:100BF00013D3B0F1807F06D340084FEA310102F1F0
:100C00000102FE2A51D2B1F1004F40EBC25008BFA1
:100C100020F0010040EA03007047490040EB00006B
:100C2000013A28BFB0F5000FEDD2B0FA80FCACF16C
:100C3000080CB2EB0C0200FA0CF0AABF00EBC25099
:100C400052421843BCBFD0401843704792F0000F87
:100C500081F4000106BF80F400000132013BB5E7DA
:100C60004FEA41037FEA226C18BF7FEA236C21D050
:100C700092EA030F04D092F0000F08BF08467047B5
:100C800090EA010F1CBF0020704712F07F4F04D183
:100C9000400028BF40F00040704712F100723CBF96
:100CA00000F50000704700F0004343F0FE4040F4C0
:100CB000000070477FEA226216BF08467FEA23637E
:100CC0000146420206BF5FEA412390EA010F40F469
:100CD000800070474FF0000304E000BF10F00043B5
:100CE00048BF40425FEA000C08BF704743F096439C
:100CF00001464FF000001CE050EA010208BF7047B7
:100D00004FF000030AE000BF50EA010208BF70473D
:100D100011F0004302D5404261EB41015FEA010C52
:100D200002BF84460146002043F0B64308BFA3F14A
:100D30008053A3F50003BCFA8CF2083AA3EBC2532C
:100D400010DB01FA02FC634400FA02FCC2F120024B
:100D5000BCF1004F20FA02F243EB020008BF20F082
:100D60000100704702F1200201FA02FCC2F12002E8
:100D700050EA4C0021FA02F243EB020008BF20EADD
:100D8000DC70704738B505460C4600220023284623
:100D90002146FFF713FE28B928462146BDE8384012
:100DA00000F00AB8284604F1004100F005F840427E
:100DB00061EB410138BD00BFD0B500220B4B0646A8
:100DC0000F46FFF789FBFFF75FFE0446FFF70AFBBC
:100DD0000022074BFFF780FB02460B4630463946A0
:100DE000FFF7C2F9FFF750FE2146D0BD0000F03DED
:100DF0000000F04180B588B000AF78600023FB6050
:100E000007F1100300221A605A609A60DA6000212C
:100E1000002000F049FB7868FFF706FB02460B460E
:100E200007F10C00084905F0CDFE07F10C03184648
:100E300000F01EFBDF2000F0BDFA432000F0BAFAFC
:100E400000BF2037BD4680BDE8A4000880B588B04B
:100E500000AF78600023FB6007F1100300221A60E6
:100E60005A609A60DA600021012000F01DFB78686A
:100E7000FFF7DAFA02460B4607F10C00074905F0C6
:100E8000A1FE07F10C03184600F0F2FA252000F04D
:100E900091FA00BF2037BD4680BD00BFF4A4000812
:100EA00080B586B000AF78600B467B8007F1080301
:100EB00000221A605A609A60DA607B88BB60012366
:100EC000FB6002237B6107F108031946786802F092
:100ED0000BFE00BF1837BD4680BD80B586B000AFA1
:100EE00078600B467B8007F1080300221A605A6085
:100EF0009A60DA607B88BB600023FB6000233B6163
:100F000007F108031946786802F0EEFD00BF1837B4
:100F1000BD4680BD80B500AF20211148FFF7C0FF5E
:100F2000012220210E4802F07AFF4FF47A7001F07E
:100F300099FE002220210A4802F071FF44F250601D
:100F400000F0AAFD01222021054802F068FF1420CC
:100F500000F0A2FD20210248FFF7BFFF00BF80BDC7
:100F6000000C014080B582B000AF0023FB71282047
:100F700000F092FD2021114802F03AFF0346002BB9
:100F80000ED1502000F088FD20210C4802F030FFE7
:100F90000346002B02D00123FB7101E0FF23FB710C
:100FA00000BF2021054802F023FF0346002BF8D1A3
:100FB000FB7918460837BD4680BD00BF000C0140D4
:100FC00080B582B000AF0023BB7137E000BF2021A5
:100FD0001E4802F00DFF0346002BF8D0282000F039
:100FE0005BFD2021194802F003FF0346002B0ED1C0
:100FF000BB79C3F10703012202FA03F35BB2DB43BF
:101000005AB297F9073013405BB2FB710BE0BB7922
:10101000C3F10703012202FA03F35AB297F907302A
:1010200013435BB2FB7100BF2021084802F0E0FED1
:101030000346002BF8D1BB790133BB71BB79072B79
:10104000C4D9FB7918460837BD4680BD000C014065
:1010500080B500AF01224FF48071B24802F0DFFE8C
:1010600000224FF40071AF4802F0D9FE00224FF485
:101070008061AC4802F0D3FE00224FF40061A94821
:1010800002F0CDFE00224FF48051A64802F0C7FEC8
:101090004FF48051A44802F0ABFE0346012B02D16D
:1010A000A24B1B7C50E14FF400519F4802F0A0FE80
:1010B0000346012B02D19D4B5B7C45E14FF48041FF
:1010C000994802F095FE0346012B02D1974B9B7C79
:1010D0003AE14FF40041944802F08AFE0346012BA6
:1010E00002D1924BDB7C2FE100224FF480718D48BE
:1010F00002F095FE01224FF400718A4802F08FFE43
:1011000000224FF48061874802F089FE00224FF4EC
:101110000061844802F083FE00224FF48051814830
:1011200002F07DFE4FF480517F4802F061FE0346DD
:10113000012B02D17D4B1B7B06E14FF400517A4815
:1011400002F056FE0346012B02D1784B5B7BFBE09D
:101150004FF48041744802F04BFE0346012B02D14C
:10116000724B9B7BF0E04FF400416F4802F040FE71
:101170000346012B02D16D4BDB7BE5E000224FF4EF
:101180008071684802F04BFE00224FF40071654800
:1011900002F045FE01224FF48061624802F03FFEFA
:1011A00000224FF400615F4802F039FE00224FF444
:1011B00080515C4802F033FE4FF480515A4802F0EF
:1011C00017FE0346012B02D1584B1B7ABCE04FF4AB
:1011D0000051554802F00CFE0346012B02D1534B3F
:1011E0005B7AB1E04FF480414F4802F001FE0346C4
:1011F000012B02D14D4B9B7AA6E04FF400414A48A7
:1012000002F0F6FD0346012B02D1484BDB7A9BE04E
:1012100000224FF48071434802F001FE00224FF497
:101220000071404802F0FBFD00224FF480613D4810
:1012300002F0F5FD01224FF400613A4802F0EFFDA3
:1012400000224FF48051374802F0E9FD4FF48051FD
:10125000354802F0CDFD0346012B02D1334B1B79FB
:1012600072E04FF40051304802F0C2FD0346012BFA
:1012700002D12E4B5B7967E04FF480412A4802F09F
:10128000B7FD0346012B02D1284B9B795CE04FF45C
:101290000041254802F0ACFD0346012B02D1234B4F
:1012A000DB7951E000224FF480711E4802F0B7FD57
:1012B00000224FF400711B4802F0B1FD00224FF4F0
:1012C0008061184802F0ABFD00224FF40061154820
:1012D00002F0A5FD01224FF48051124802F09FFD5B
:1012E0004FF48051104802F083FD0346012B02D1D8
:1012F0000E4B1B7828E04FF400510B4802F078FDAC
:101300000346012B02D1094B5B781DE04FF480416D
:10131000054802F06DFD0346012B09D1034B9B7874
:1013200012E000BF00080140000C01400000002056
:101330004FF40041054802F05BFD0346012B02D14A
:10134000034BDB7800E00023184680BD000C014011
:101350000000002080B586B002AF0346FB71FB7928
:1013600023F00F03FB73FB791B01BB73FB7B43F083
:101370000C03DBB23B72FB7B43F00803DBB27B72F6
:10138000BB7B43F00C03DBB2BB72BB7B43F00803B7
:10139000DBB2FB7207F108026423009304234E21A1
:1013A000034802F099FE00BF1037BD4680BD00BF64
:1013B0008002002080B586B002AF0346FB71FB7946
:1013C00023F00F03FB73FB791B01BB73FB7B43F023
:1013D0000D03DBB23B72FB7B43F00903DBB27B7294
:1013E000BB7B43F00D03DBB2BB72BB7B43F0090355
:1013F000DBB2FB7207F108026423009304234E2141
:10140000034802F069FE00BF1037BD4680BD00BF33
:101410008002002080B500AF3320FFF79BFF322011
:10142000FFF798FF322001F01DFC2820FFF792FF04
:10143000322001F017FC0120FFF78CFF322001F071
:1014400011FC0620FFF786FF322001F00BFC0C2078
:10145000FFF780FF322001F005FC0220FFF77AFF42
:10146000322001F0FFFB8020FFF774FF00BF80BD3A
:1014700080B582B000AF786006E07B685A1C7A6065
:101480001B781846FFF796FF7B681B78002BF4D17A
:1014900000BF00BF0837BD4680BD80B500AF01204A
:1014A000FFF758FF00BF80BD80B584B000AF786003
:1014B00039607B68012B08D17B68DAB23B68DBB20C
:1014C0001344DBB27F33FB7308E03B68DBB240338D
:1014D000DBB25BB263F07F035BB2FB73FB7B18464E
:1014E000FFF738FF00BF1037BD4680BD80B483B022
:1014F00000AF78607B68632B01D80A23B4E07B6877
:10150000B3F5C87F8CBF01230023DAB27B6840F2B9
:10151000F3118B4294BF01230023DBB21340DBB2F3
:10152000002B01D014239FE07B68B3F52F7F8CBF85
:1015300001230023DAB27B6840F21F318B4294BF53
:1015400001230023DBB21340DBB2002B01D01E23AA
:101550008AE07B68B3F5617F8CBF01230023DAB298
:101560007B6840F2E7318B4294BF01230023DBB25A
:101570001340DBB2002B01D0282375E07B6840F2DA
:101580004C4293428CBF01230023DAB27B6840F2C5
:10159000AF418B4294BF01230023DBB21340DBB287
:1015A000002B01D032235FE07B6840F2145293425B
:1015B0008CBF01230023DAB27B6840F277518B4263
:1015C00094BF01230023DBB21340DBB2002B01D018
:1015D0003C2349E07B6840F2DC5293428CBF0123FC
:1015E0000023DAB27B6840F23F618B4294BF012353
:1015F0000023DBB21340DBB2002B01D0462333E0E3
:101600007B6840F2A46293428CBF01230023DAB2CC
:101610007B6840F207718B4294BF01230023DBB249
:101620001340DBB2002B01D050231DE07B6840F259
:101630006C7293428CBF01230023DAB27B6840F2C4
:10164000CF718B4294BF01230023DBB21340DBB286
:10165000002B01D05A2307E07B6840F63402934206
:1016600001D9642300E0002318460C37BD4680BC36
:101670007047000080B582B000AF7860044A7B6894
:101680001360002000F006F800BF0837BD4680BD9B
:101690000802002080B584B000AF0346FB71FB79DF
:1016A000002B01D0802300E00023FB73002000F01A
:1016B0003DF803465BB203F07F035AB297F90F304F
:1016C00013435BB2DBB21946002000F011F800BFF3
:1016D0001037BD4680BD80B500AF002000F026F871
:1016E0000346DB11DBB203F00103DBB2184680BD19
:1016F00080B586B002AF03460A46FB711346BB7144
:10170000FB793B73BB797B73074B186807F10C02BD
:101710004FF47A7300930223D02102F0DDFC00BF66
:101720001037BD4680BD00BF0802002080B586B0DE
:1017300002AF0346FB710D4B1868FA1D4FF47A7324
:1017400000930123D02102F0C7FC084B186807F171
:101750000F024FF47A7300930123D02102F0BAFDF7
:10176000FB7B18461037BD4680BD00BF0802002035
:1017700080B500AF0320FFF7D9FF0346184600F0FD
:101780002FF90346184680BD80B500AF0420FFF74F
:10179000CDFF0346184600F023F90346184680BDE6
:1017A00080B500AF0520FFF7C1FF0346184600F0E3
:1017B00017F90346184680BD80B582B000AF1020EF
:1017C000FFF7B4FF03469BB21A46920013441A4631
:1017D00091001A460B4613449B00FB800620FFF73E
:1017E000A5FF0346184600F0FBF803469AB2FB88B3
:1017F00013449BB218460837BD4680BD80B500AF84
:101800000220FFF793FF034603F03F03DBB21846C5
:1018100000F0E6F80346184680BD80B500AF012011
:10182000FFF784FF0346184600F0DAF8034618462F
:1018300080BD80B500AF0020FFF778FF034603F0BE
:101840007F03DBB2184600F0CBF80346184680BD94
:1018500080B500AF0820FFF769FF03465BB218466A
:1018600080BD80B500AF0920FFF760FF0346184632
:1018700080BD80B582B000AF0346FB71FB7918468E
:1018800000F0C6F8034619460320FFF731FF00BFFA
:101890000837BD4680BD80B582B000AF0346FB71FE
:1018A000FB79184600F0B4F8034619460420FFF708
:1018B0001FFF00BF0837BD4680BD80B582B000AFB6
:1018C0000346FB71FB79184600F0A2F8034619465F
:1018D0000520FFF70DFF00BF0837BD4680BD0000A3
:1018E00080B582B000AF0346FB80FB88104AA2FBA4
:1018F00003235B099BB2DBB219461020FFF7F8FE09
:10190000FB880B4AA2FB03125209642101FB02F27D
:101910009B1A9BB2DBB2184600F07AF803461946D0
:101920000620FFF7E5FE00BF0837BD4680BD00BFBB
:101930001F85EB5180B582B000AF0346FB71FB7988
:1019400003F03F03DBB2184600F062F80346194685
:101950000220FFF7CDFE00BF0837BD4680BD80B531
:1019600082B000AF0346FB71FB79184600F050F8D7
:10197000034619460120FFF7BBFE00BF0837BD46EE
:1019800080BD80B584B000AF0346FB71FFF7A3FEB6
:101990000346FB73FA79FB7B1343DBB2184600F076
:1019A00037F8034619460020FFF7A2FE00BF1037A4
:1019B000BD4680BD80B582B000AF03460A46FB71CC
:1019C0001346BB71FB7919460820FFF791FEBB79DE
:1019D00019460920FFF78CFE00BF0837BD4680BDC1
:1019E00080B483B000AF0346FB71FB791B09DBB207
:1019F0001A46920013445B00DAB2FB7903F00F033E
:101A0000DBB21344DBB218460C37BD4680BC7047CE
:101A100080B483B000AF0346FB71FA790C4BA3FB93
:101A20000213D9080B469B000B445B00D31ADAB2B1
:101A3000FB790749A1FB0313DB08DBB21B01DBB217
:101A40001344DBB218460C37BD4680BC704700BF5C
:101A5000CDCCCCCC80B483B000AF00237B600EE053
:101A60000B4A7B6813441A780A497B680B441B783D
:101A70009A4201D0002306E07B6801337B607B68DB
:101A8000032BEDDD012318460C37BD4680BC7047A3
:101A9000140000207003002080B483B000AF034620
:101AA000FB80084B1B6800225A6200BF054B1B6875
:101AB0005A6AFB889A42F9D300BF00BF0C37BD4673
:101AC00080BC704728030020B0B5A8B002AF01F079
:101AD00067F800F0FBFB00F06FFD00F04FFD00F039
:101AE000A1FC00F043FC00F0F9FC00F0C9FCD84870
:101AF00003F0E4FE0122D749D74801F0AFF9FFF720
:101B000089FCFFF7CAFC02210120FFF7CDFCD34876
:101B1000FFF7AEFCD24B07F168041D460FCD0FC492
:101B200095E8070084E80700CE48FFF7A3FD0021F1
:101B30000820FFF73FFF0C20FFF7ADFE0C20FFF75A
:101B4000BCFE40F2E770FFF7CBFE0220FFF791FEEC
:101B50000920FFF7EFFE1120FFF701FF1E20FFF71E
:101B600010FFFFF775FA034687F89330FFF70CFE76
:101B7000034687F89230FFF713FE034687F891304B
:101B8000FFF71AFE0346A7F88E30FFF7F1FD034674
:101B900087F88D30FFF732FE034687F88C30FFF769
:101BA0003CFE034687F88B30FFF743FE034687F879
:101BB0008A30FFF74DFE034687F88930FFF751FE64
:101BC000034687F88830A84B1B78DBB20D2BC8D8AA
:101BD00001A252F823F000BF111C0008311C0008BC
:101BE000371C0008E71C0008631B0008091D0008DB
:101BF000311D0008D51E0008F91D0008DD1E000873
:101C0000671F0008F11F0008C7200008E92100082D
:101C100000210120FFF748FC9448FFF729FC97F8C2
:101C20009330002B00F039838F4B05221A7034E378
:101C3000FFF733FC43E300210120FFF735FC8C481C
:101C4000FFF716FC00210220FFF72EFC8948FFF762
:101C50000FFC4FF4FA6001F005F8FFF71EFC7D4B16
:101C60001B681846FFF742FC034687F8863097F852
:101C700086301E2B08D8C82000F0F4FFFFF70DFCBB
:101C8000794B03221A701AE300210120FFF70CFCA4
:101C90007948FFF7EDFB97F89330432B08D1C82024
:101CA00000F0E0FFFFF7F9FB6F4B00221A7006E32C
:101CB00097F893302A2B08D1C82000F0D3FFFFF704
:101CC000ECFB694B00221A70F9E297F89330432B32
:101CD00040F0E582C82000F0C5FFFFF7DEFB624B55
:101CE00000221A70DBE200210120FFF7DDFB6348D0
:101CF000FFF7BEFB4FF4FA6000F0B4FFFFF7CDFB37
:101D0000594B0B221A70DAE2574B06221A70FFF772
:101D1000C4FB00210120FFF7C7FB5948FFF7A8FBD0
:101D200002210220FFF7C0FB0023C7F89430C6E26F
:101D3000642000F097FF97F89330002B00F0B182F9
:101D4000642000F08FFF97F893301846FFF732FBBE
:101D5000642000F087FF4B4AD7F89430134497F87B
:101D600093201A70D7F894300133C7F89430D7F81D
:101D70009430042B40F09582FFF76CFE0346002B55
:101D80001CD0394B08221A70642000F06BFFFFF75B
:101D900084FB00210120FFF787FB3B48FFF768FB2E
:101DA00001210220FFF780FB3848FFF761FB4FF469
:101DB0007A7000F057FFFFF770FB19E0642000F025
:101DC00051FFFFF76AFB00210120FFF76DFB304850
:101DD000FFF74EFB01210220FFF766FB2D48FFF7BE
:101DE00047FB4FF47A7000F03DFF1F4B07221A703B
:101DF000642000F037FF54E2642000F033FF00213C
:101E00000120FFF751FB2448FFF732FB012102209C
:101E1000FFF74AFB2148FFF72BFB97F89330522B33
:101E200008D1C82000F01EFFFFF737FB0E4B092238
:101E30001A7041E097F893304C2B31D1C82000F054
:101E400011FFFFF72AFB084B0A221A7034E000BF8B
:101E500028030020740300200C02002000A50008C5
:101E600018A60008D40200208D0300200CA500084D
:101E70001CA5000830A5000840A5000850A50008D2
:101E800060A50008700300206CA500087CA5000870
:101E90008CA500089CA50008A8A50008B0A500080E
:101EA00097F89330452B07D1C82000F0DBFEFFF7F1
:101EB000F4FABB4B0B221A7097F89330432B40F087
:101EC000F281C82000F0CEFEFFF7E7FAB44B002203
:101ED0001A70E8E1B24B05221A70F0E1642000F0BC
:101EE000C1FE00210120FFF7DFFAAE48FFF7C0FA7C
:101EF00001210220FFF7D8FAAB48FFF7B9FA97F8AB
:101F00009330522B08D1C82000F0ACFEFFF7C5FA81
:101F1000A34B0A221A7018E097F893304C2B08D183
:101F2000C82000F09FFEFFF7B8FA9D4B08221A70F8
:101F30000BE097F89330452B07D1C82000F092FEB4
:101F4000FFF7ABFA964B0C221A7097F89330432B9D
:101F500040F0AB81C82000F085FEFFF79EFA904B61
:101F600000221A70A1E1642000F07CFE0021012013
:101F7000FFF79AFA8B48FFF77BFA01210220FFF75F
:101F800093FA8A48FFF774FA97F89330522B08D1E6
:101F9000C82000F067FEFFF780FA814B08221A7014
:101FA00018E097F893304C2B08D1C82000F05AFE67
:101FB000FFF773FA7A4B09221A700BE097F8933007
:101FC000452B07D1C82000F04DFEFFF766FA744B91
:101FD0000D221A7097F89330432B40F06881C82087
:101FE00000F040FEFFF759FA6D4B00221A705EE1D7
:101FF000642000F037FE6E4B1B681846FFF776FA38
:10200000034687F8873000210120FFF74DFA694821
:10201000FFF72EFA97F88730674AA2FB03235B0984
:10202000DBB23033DBB21846FFF7C4F997F88730DC
:10203000614AA2FB03125209642101FB02F29B1ABE
:10204000DBB25E4AA2FB0323DB08DBB23033DBB238
:102050001846FFF7AFF997F88720584BA3FB0213F8
:10206000D9080B469B000B445B00D31ADBB230331C
:10207000DBB21846FFF79EF997F88730592B08D93D
:10208000C82000F0EFFDFFF708FA454B02221A7056
:1020900015E197F89330432B07D1C82000F0E2FDFB
:1020A000FFF7FBF93E4B00221A7097F893304C2B48
:1020B00040F0FF80C82000F0D5FDFFF7EEF9384B67
:1020C00008221A70F5E0642000F0CCFDFEF722FF34
:1020D000FEF748FF03461A46394B1A70FEF770FFA9
:1020E00003461A46374B1A70FEF76AFF03461A4634
:1020F000354B1A70FEF764FF03461A46334B1A70CD
:10210000FEF75EFF03461A46314B1A70FEF758FF82
:1021100003469AB22F4B1A802C4B1B789AB22E4B47
:102120001A80284B1B789AB22C4B1A802A4B1B889A
:102130001846FEF7CFFD0346294A1360274B1B883C
:102140001846FEF7C7FD0346264A1360244B1B685A
:102150001846FEF74FFE234B1B681846FEF776FE27
:102160004FF4966000F07EFD97F89330432B08D132
:10217000C82000F077FDFFF790F9094B00221A7094
:102180009DE097F893304C2B40F09580C82000F0EC
:1021900069FDFFF782F9024B09221A708FE000BF38
:1021A0008D030020A8A50008B8A50008C0A5000858
:1021B00074030020C8A500081F85EB51CDCCCCCC02
:1021C0008C03002078030020790300207A0300208C
:1021D0007B0300207C030020800300207E0300207E
:1021E0008403002088030020642000F03BFD0023CE
:1021F0007B6007F1080360220021184604F045FDCA
:1022000097F88D309B0098333B4453F8301C97F877
:10221000924097F89130B7F88E20381D01920093C4
:1022200023460A46264904F0CDFC00210120FFF791
:102230003BF93B1D1846FFF71BF997F88C2097F8E0
:102240008B1097F88A30381D00930B461D4904F017
:10225000B9FC00210220FFF727F93B1D1846FFF7C4
:1022600007F9FA2000F0FEFC97F89330432B07D1D2
:10227000C82000F0F7FCFFF710F9134B00221A708A
:1022800097F893304C2B18D1C82000F0EBFCFFF7E7
:1022900004F90D4B0A221A700FE000BF61E400BF81
:1022A0005FE400BF5DE400BF5BE400BF59E400BF32
:1022B00057E400BF55E400BF53E400BF51E450E4CD
:1022C000D0A50008E8A500088D03002080B594B0D3
:1022D00000AF07F1280328220021184604F0D5FC9E
:1022E00007F1140300221A605A609A60DA601A61DA
:1022F0003B1D00221A605A609A60DA600123BB62BB
:102300004FF48033FB6200237B6407F128031846F7
:1023100002F0D2FD0346002B01D000F0F9F90F23A3
:102320007B610123BB610023FB6100233B6200232F
:102330007B6207F114030021184603F03FF80346BF
:10234000002B01D000F0E4F902237B604FF48043BE
:10235000FB603B1D184603F0ABF90346002B01D090
:1023600000F0D6F900BF5037BD4680BD80B58AB0B9
:1023700000AF07F1100300221A605A609A60DA6019
:102380001A615A613B1D00221A605A609A60234B01
:10239000234A1A60214B00229A60204B01221A73B3
:1023A0001E4B00221A751D4B4FF46022DA611B4B45
:1023B00000225A60194B01221A61184800F076FC7D
:1023C0000346002B01D000F0A3F94FF400033B615A
:1023D0000023FB6100233B6200233B7607F11003DF
:1023E00019460E4800F02CFF0346002B01D000F0E8
:1023F0008FF900237B600123BB600723FB603B1D3B
:102400001946064800F024FE0346002B01D000F0D8
:102410007FF900BF2837BD4680BD00BF0C020020F9
:102420000024014080B500AF124B134A1A60114BD3
:10243000124A5A600F4B00229A600E4B0022DA605B
:102440000C4B4FF480421A610A4B00225A61094B2F
:1024500000229A61074B0022DA61064B00221A62C1
:10246000044801F0F5FC0346002B01D000F050F9C0
:1024700000BF80BD8002002000540040A086010003
:1024800080B500AF124B134A1A60114B124A5A60C2
:102490000F4B00229A600E4B0022DA600C4B4FF477
:1024A00080421A610A4B00225A61094B00229A614C
:1024B000074B0022DA61064B00221A62044801F041
:1024C000C7FC0346002B01D000F022F900BF80BDFD
:1024D000D402002000580040A086010080B586B0DC
:1024E00000AF07F1080300221A605A609A60DA60B0
:1024F0003B4600221A605A601E4B1F4A1A601D4B51
:1025000047225A601B4B00229A601A4B4FF6FF720B
:10251000DA60184B00221A61164B00225A61154BE3
:1025200000229A61134803F079F90346002B01D089
:1025300000F0EEF84FF48053BB6007F10803194632
:102540000C4803F005FA0346002B01D000F0E0F838
:1025500000233B6000237B603B461946054803F09F
:10256000B7FB0346002B01D000F0D2F800BF1837AC
:10257000BD4680BD28030020002C014080B582B0FC
:1025800000AF0C4B5B690B4A43F001035361094BED
:102590005B6903F001037B607B68002200210B2054
:1025A00001F07DF80B2001F096F800BF0837BD461A
:1025B00080BD00BF0010024080B588B000AF07F1B9
:1025C000100300221A605A609A60DA604D4B9B69D2
:1025D0004C4A43F0200393614A4B9B6903F020036C
:1025E000FB60FB68474B9B69464A43F004039361D9
:1025F000444B9B6903F00403BB60BB68414B9B6980
:10260000404A43F0080393613E4B9B6903F0080383
:102610007B607B68002241F642713B4801F0FFFB82
:1026200000220121394801F0FAFB42233B610123DA
:102630007B610023BB610223FB6107F11003194694
:10264000314801F051FA08233B6100237B610023EC
:10265000BB6107F1100319462B4801F045FA8023AE
:102660003B6100237B610023BB6107F11003194626
:10267000254801F039FA01233B6101237B610023E6
:10268000BB610223FB6107F1100319461F4801F0EB
:102690002BFA02233B6100237B610023BB6107F11E
:1026A00010031946194801F01FFA4FF470433B61BB
:1026B00000237B610223BB6107F110031946134815
:1026C00001F012FA4FF4F8533B6101237B610223BE
:1026D000BB610223FB6107F1100319460A4801F0B0
:1026E00003FA20233B6100237B610123BB6107F1D7
:1026F00010031946054801F0F7F900BF2037BD4621
:1027000080BD00BF0010024000080140000C0140E5
:1027100080B400AF72B600BFFEE7000080B485B0A1
:1027200000AF154B9B69144A43F001039361124BB0
:102730009B6903F00103BB60BB680F4BDB690E4A6A
:1027400043F08053D3610C4BDB6903F080537B6013
:102750007B680A4B5B68FB60FB6823F0E063FB600F
:10276000FB6843F00073FB60044AFB68536000BFE2
:102770001437BD4680BC7047001002400000014085
:1027800080B588B000AF786007F1100300221A60AE
:102790005A609A60DA607B681B68284A934249D184
:1027A000274B9B69264A43F400739361244B9B6932
:1027B00003F40073FB60FB68214B9B69204A43F0E4
:1027C000040393611E4B9B6903F00403BB60BB6869
:1027D00001233B6103237B6107F11003194619486C
:1027E00001F082F9184B194A1A60174B00225A60FF
:1027F000154B00229A60144B8022DA60124B4FF482
:1028000080721A61104B4FF480625A610E4B202285
:102810009A610D4B0022DA610B4800F077FF034606
:10282000002B01D0FFF774FF7B68074A1A62064A43
:102830007B68536200BF2037BD4680BD0024014045
:1028400000100240000801403C0200200800024045
:1028500080B58AB000AF786007F1180300221A60D3
:102860005A609A60DA607B681B682B4A934224D1D5
:102870002A4B9B69294A43F008039361274B9B69C4
:1028800003F008037B617B69C023BB611223FB61FA
:1028900003237B6207F118031946214801F024F94C
:1028A0001E4BDB691D4A43F40013D3611B4BDB69EC
:1028B00003F400133B613B6929E07B681B68194AFC
:1028C000934224D1154B9B69144A43F0080393614A
:1028D000124B9B6903F00803FB60FB684FF44063F5
:1028E000BB611223FB6103237B6207F118031946C6
:1028F0000B4801F0F9F8094BDB69084A43F48003FF
:10290000D361064BDB6903F48003BB60BB6800BF87
:102910002837BD4680BD00BF005400400010024073
:10292000000C01400058004080B485B000AF7860D2
:102930007B681B68094A93420BD1094B9B69084A83
:1029400043F400639361064B9B6903F40063FB60EF
:10295000FB6800BF1437BD4680BC7047002C0140A7
:102960000010024080B400AFFEE780B400AFFEE785
:1029700080B400AFFEE780B400AFFEE780B400AFE4
:10298000FEE780B400AF00BFBD4680BC704780B496
:1029900000AF00BFBD4680BC704780B400AF00BF31
:1029A000BD4680BC704780B500AF00F03FF900BF66
:1029B00080BD000080B500AF024800F061FF00BF9D
:1029C00080BD00BF3C02002080B400AF0123184648
:1029D000BD4680BC704780B582B000AF786039607A
:1029E00004F0A6F9034616221A604FF0FF3318468A
:1029F0000837BD4680BD80B582B000AF78604FF02B
:102A0000FF317868FFF7E7FFFEE780B586B000AFDB
:102A1000F860B9607A6000237B610AE0AFF3008060
:102A20000146BB685A1CBA60CAB21A707B6901338E
:102A30007B617A697B689A42F0DB7B6818461837BD
:102A4000BD4680BD80B586B000AFF860B9607A60E1
:102A500000237B6109E0BB685A1CBA601B781846EA
:102A6000AFF300807B6901337B617A697B689A42AE
:102A7000F1DB7B6818461837BD4680BD80B483B053
:102A800000AF78604FF0FF3318460C37BD4680BC6E
:102A9000704780B483B000AF786039603B684FF412
:102AA00000525A60002318460C37BD4680BC704760
:102AB00080B483B000AF7860012318460C37BD4660
:102AC00080BC704780B485B000AFF860B9607A60B0
:102AD000002318461437BD4680BC704780B586B0C9
:102AE00000AF7860144A154BD31A7B617B693B6158
:102AF000134B1B68002B02D1114B124A1A60104B6A
:102B00001A687B6813443A699A4207D204F010F9B4
:102B100003460C221A604FF0FF3309E0084B1B6894
:102B2000FB60074B1A687B681344054A1360FB6817
:102B300018461837BD4680BD005000200004000034
:102B400090030020E804002080B400AF00BFBD4621
:102B500080BC7047FFF7F8FF0B480C490C4A002374
:102B600002E0D458C4500433C4188C42F9D3094A43
:102B7000094C002301E013600432A242FBD304F0AD
:102B8000DDF8FEF7A1FF704700000020EC010020F7
:102B900090AA0008EC010020E4040020FEE70000F9
:102BA00080B500AF084B1B68074A43F01003136061
:102BB000032000F069FD0F2000F008F8FFF7AEFDDC
:102BC0000023184680BD00BF0020024080B582B0BF
:102BD00000AF7860124B1A68124B1B7819464FF4FD
:102BE0007A73B3FBF1F3B2FBF3F3184600F081FD07
:102BF0000346002B01D001230EE07B680F2B0AD87F
:102C0000002279684FF0FF3000F049FD064A7B68EA
:102C10001360002300E0012318460837BD4680BD3D
:102C200018000020200000201C00002080B400AF0D
:102C3000054B1B781A46054B1B681344034A136067
:102C400000BFBD4680BC70472000002094030020D8
:102C500080B400AF024B1B681846BD4680BC70476D
:102C60009403002080B584B000AF7860FFF7F0FFD8
:102C7000B8607B68FB60FB68B3F1FF3F05D00A4B8F
:102C80001B781A46FB681344FB6000BFFFF7E0FFA8
:102C90000246BB68D31AFA689A42F7D800BF00BF51
:102CA0001037BD4680BD00BF2000002080B586B033
:102CB00000AF78600023FB7500233B610023BB60FD
:102CC0000023FB607B68002B01D10123BEE07B6801
:102CD0009B68002B7B689B6A002B09D17B680022D4
:102CE000DA627B68002283F824207868FFF748FDC9
:102CF000786800F055FB0346FB757B689B6A03F020
:102D00001003002B40F09980FB7D002B40F0958054
:102D10007B689B6A23F4885323F0020343F002028A
:102D20007B689A627B685A687B68DB691A437B68B8
:102D30001B7B5B001343BA681343BB607B689B68D3
:102D4000B3F5807F03D07B689B68012B02D14FF4E1
:102D5000807300E000233A6913433B617B681B7D6D
:102D6000012B19D17B681B7B002B09D17B689B69E8
:102D7000013B5A033B69134343F400633B610BE09F
:102D80007B689B6A43F020027B689A627B68DB6AFF
:102D900043F001027B68DA627B681B685B6823F49E
:102DA00069417B681B683A690A435A607B681B6803
:102DB0009A68284B13407A681268B9680B4393608D
:102DC0007B689B68B3F5807F03D07B689B68012B91
:102DD00004D17B681B69013B1B05FB607B681B689A
:102DE000DB6A23F470017B681B68FA680A43DA62C5
:102DF0007B681B689A68184B1340BA689A420BD1DB
:102E00007B680022DA627B689B6A23F0030343F04D
:102E100001027B689A6218E07B689B6A23F01203C8
:102E200043F010027B689A627B68DB6A43F0010220
:102E30007B68DA620123FB7507E07B689B6A43F0DD
:102E400010027B689A620123FB75FB7D18461837D8
:102E5000BD4680BDFDF7E1FFFE0E1FFF80B586B0C9
:102E600000AFF860B9607A600023FB75FB681B68EF
:102E7000644A934204D0FB681B68634A934206D1BC
:102E8000604B5B6803F47023002B40F0B380FB6859
:102E900093F82430012B01D10223AEE0FB6801221C
:102EA00083F82420F86800F021FA0346FB75FB7DC7
:102EB000002B40F09A80FB689B6A23F4706323F038
:102EC000010343F48072FB689A62FB681B684E4AF8
:102ED000934205D14B4B5B6803F47023002B15D153
:102EE000FB689B6A23F48012FB689A62FB681B688C
:102EF0005B6803F48063002B26D0FB689B6A23F495
:102F0000405343F48052FB689A621DE0FB689B6A61
:102F100043F48012FB689A62FB681B68394A93424B
:102F200004D0FB681B68384A93420DD1354B5B686F
:102F300003F48063002B07D0FB689B6A23F44053A3
:102F400043F48052FB689A62FB689B6A03F48053E7
:102F5000002B06D0FB68DB6A23F00602FB68DA620E
:102F600002E0FB680022DA62FB68002283F824207A
:102F7000FB681B6A254A9A62FB681B6A244ADA626C
:102F8000FB681B6A234A1A63FB681B686FF0020226
:102F90001A60FB681B689A68FB681B6842F48072C1
:102FA0009A60FB68186AFB681B684C331946BA685C
:102FB0007B6800F005FCFB681B689B6803F46023DA
:102FC000B3F5602F08D1FB681B689A68FB681B6823
:102FD00042F4A0029A600FE0FB681B689A68FB68E5
:102FE0001B6842F480129A6006E0FB68002283F8B6
:102FF000242001E00123FB75FB7D18461837BD46F0
:1030000080BD00BF00240140002801402334000897
:103010009F340008BB34000880B483B000AF7860F0
:1030200000BF0C37BD4680BC704780B483B000AF92
:10303000786000BF0C37BD4680BC704780B483B059
:1030400000AF786000BF0C37BD4680BC7047000001
:1030500080B485B000AF786039600023FB73002333
:10306000BB607B6893F82430012B01D10223DCE0A4
:103070007B68012283F824203B685B68062B1CD800
:103080007B681B68596B3B685A6813469B00134466
:10309000053B1F2202FA03F3DB4319403B68186823
:1030A0003B685A6813469B001344053B00FA03F241
:1030B0007B681B680A435A633CE03B685B680C2BE7
:1030C0001CD87B681B68196B3B685A6813469B00C9
:1030D0001344233B1F2202FA03F3DB4319403B68EE
:1030E00018683B685A6813469B001344233B00FA58
:1030F00003F27B681B680A431A631BE07B681B684A
:10310000D96A3B685A6813469B001344413B1F220F
:1031100002FA03F3DB4319403B6818683B685A68BE
:1031200013469B001344413B00FA03F27B681B6883
:103130000A43DA623B681B68092B1CD97B681B6851
:10314000D9683B681A6813465B0013441E3B07228C
:1031500002FA03F3DB4319403B6898683B681A683E
:1031600013465B0013441E3B00FA03F27B681B68A6
:103170000A43DA6019E07B681B6819693B681A68C2
:1031800013465B001344072202FA03F3DB431940A2
:103190003B6898683B681A6813465B00134400FA62
:1031A00003F27B681B680A431A613B681B68102B9B
:1031B00003D03B681B68112B32D17B681B681D4A0A
:1031C000934225D17B681B689B6803F40003002BA6
:1031D00026D17B681B689A687B681B6842F40002F2
:1031E0009A603B681B68102B1AD1134B1B68134A5B
:1031F000A2FB03239A0C13469B0013445B00BB60A5
:1032000002E0BB68013BBB60BB68002BF9D107E063
:103210007B689B6A43F020027B689A620123FB7300
:103220007B68002283F82420FB7B18461437BD46B8
:1032300080BC7047002401401800002083DE1B433F
:1032400080B483B000AF786039603B681B68244A63
:10325000934203D03B681B68224A93427B6893F8F1
:103260002430012B01D1022335E07B68012283F851
:1032700024203B681B7A012B08D17B681B685A68A5
:103280007B681B6842F040025A6007E07B681B685D
:103290005A687B681B6822F040025A607B681B6892
:1032A0005A68114B13403A6811683A6852681143E2
:1032B0007A6812680B4353607B681B683A68D2686F
:1032C0005A627B681B683A6812699A627B680022BE
:1032D00083F82420002318460C37BD4680BC704775
:1032E0000002800000024000E0FD3FFF80B584B096
:1032F00000AF78600023FB600023BB607B681B6825
:103300009B6803F00103012B40D07B681B689A681F
:103310007B681B6842F001029A601F4B1B681F4AC2
:10332000A2FB03239B0CBB6002E0BB68013BBB60BC
:10333000BB68002BF9D1FFF78BFCF8601FE0FFF7AB
:1033400087FC0246FB68D31A022B18D97B681B68DE
:103350009B6803F00103012B11D07B689B6A43F04B
:1033600010027B689A627B68DB6A43F001027B682B
:10337000DA627B68002283F82420012307E07B685F
:103380001B689B6803F00103012BD8D1002318466A
:103390001037BD4680BD00BF1800002083DE1B43F0
:1033A00080B584B000AF78600023FB607B681B6849
:1033B0009B6803F00103012B2ED17B681B689A6880
:1033C0007B681B6822F001029A60FFF741FCF860FD
:1033D0001BE0FFF73DFC0246FB68D31A022B14D911
:1033E0007B681B689B6803F00103012B0DD17B6890
:1033F0009B6A43F010027B689A627B68DB6A43F049
:1034000001027B68DA62012307E07B681B689B6826
:1034100003F00103012BDCD0002318461037BD4612
:1034200080BD80B584B000AF78607B685B6AFB606C
:10343000FB689B6A03F05003002B27D1FB689B6A53
:1034400043F40072FB689A62FB681B689B6803F494
:103450006023B3F5602F15D1FB681B7B002B11D1C6
:10346000FB689B6A23F48072FB689A62FB689B6A24
:1034700003F48053002B05D1FB689B6A43F00102E3
:10348000FB689A62F868FFF7C7FD04E0FB681B6AF7
:103490001B6B7868984700BF1037BD4680BD80B56C
:1034A00084B000AF78607B685B6AFB60F868FFF708
:1034B000BCFD00BF1037BD4680BD80B584B000AFF5
:1034C00078607B685B6AFB60FB689B6A43F0400244
:1034D000FB689A62FB68DB6A43F00402FB68DA620D
:1034E000F868FFF7ABFD00BF1037BD4680BD000098
:1034F00080B485B000AF78607B6803F00703FB60A1
:103500000C4BDB68BB60BA684FF6FF031340BB602F
:10351000FB681A02BB68134343F0BF6343F40033F4
:10352000BB60044ABB68D36000BF1437BD4680BC93
:10353000704700BF00ED00E080B400AF044BDB68D3
:103540001B0A03F007031846BD4680BC704700BF46
:1035500000ED00E080B483B000AF0346FB7197F943
:103560000730002B0BDBFB7903F01F02064997F9AC
:1035700007305B09012000FA02F241F8232000BF66
:103580000C37BD4680BC704700E100E080B483B0DA
:1035900000AF03463960FB7197F90730002B0ADB57
:1035A0003B68DAB20C4997F907301201D2B20B44EA
:1035B00083F800230AE03B68DAB20849FB7903F09C
:1035C0000F03043B1201D2B20B441A7600BF0C3732
:1035D000BD4680BC704700BF00E100E000ED00E0A8
:1035E00080B489B000AFF860B9607A60FB6803F01E
:1035F0000703FB61FB69C3F10703042B28BF042306
:10360000BB61FB690433062B02D9FB69033B00E075
:1036100000237B614FF0FF32BB6902FA03F3DA4308
:10362000BB681A407B699A404FF0FF317B6901FA11
:1036300003F3D9437B680B40134318462437BD4638
:1036400080BC704780B582B000AF78607B68013B7A
:10365000B3F1807F01D301230FE00A4A7B68013B6D
:1036600053600F214FF0FF30FFF790FF054B002212
:103670009A60044B07221A60002318460837BD469B
:1036800080BD00BF10E000E080B582B000AF786080
:103690007868FFF72DFF00BF0837BD4680BD80B5B5
:1036A00086B000AF0346B9607A60FB7300237B618C
:1036B000FFF742FF78617A68B9687869FFF790FF91
:1036C000024697F90F3011461846FFF75FFF00BF1B
:1036D0001837BD4680BD80B582B000AF0346FB7190
:1036E00097F907301846FFF735FF00BF0837BD468A
:1036F00080BD80B582B000AF78607868FFF7A2FF28
:10370000034618460837BD4680BD000080B485B02A
:1037100000AF78600023FB607B68002B01D10123A0
:1037200043E07B681B681A46224B1344224AA2FBE3
:1037300003231B099A007B681A647B681F4ADA63BB
:103740007B68022283F821207B681B681B68FB6072
:10375000FB6823F47F5323F03003FB607B685A68D7
:103760007B689B681A437B68DB681A437B681B692C
:103770001A437B685B691A437B689B691A437B68C1
:10378000DB691343FA681343FB607B681B68FA68C4
:103790001A607B6800229A637B68012283F82120EB
:1037A0007B68002283F82020002318461437BD468A
:1037B00080BC7047F8FFFDBFCDCCCCCC00000240F0
:1037C00080B586B000AFF860B9607A603B600023D6
:1037D000FB75FB6893F82030012B01D102234BE0ED
:1037E000FB68012283F82020FB6893F82130DBB2CC
:1037F000012B3AD1FB68022283F82120FB680022CA
:103800009A63FB681B681A68FB681B6822F0010258
:103810001A603B687A68B968F86800F037F9FB68A5
:10382000DB6A002B08D0FB681B681A68FB681B6802
:1038300042F00E021A600FE0FB681B681A68FB6812
:103840001B6822F004021A60FB681B681A68FB6898
:103850001B6842F00A021A60FB681B681A68FB6862
:103860001B6842F001021A6005E0FB68002283F841
:1038700020200223FB75FB7D18461837BD4680BD0E
:1038800080B584B000AF78607B68DB6B1B68FB6041
:103890007B681B681B68BB607B681B6C04229A40BA
:1038A000FB681340002B4FD0BB6803F00403002BD0
:1038B0004AD07B681B681B6803F02003002B07D1EC
:1038C0007B681B681A687B681B6822F004021A6018
:1038D0007B681B68664A934229D07B681B68654AEF
:1038E000934222D07B681B68634A93421AD07B685C
:1038F0001B68624A934212D07B681B68604A9342FD
:103900000AD07B681B685F4A934202D14FF4800360
:103910000EE04FF080630BE04FF4802308E04FF49B
:10392000804305E04FF4806302E0402300E004237D
:10393000554A53607B68DB6A002B00F094807B68FB
:10394000DB6A786898478EE07B681B6C02229A409D
:10395000FB681340002B56D0BB6803F00203002B1A
:1039600051D07B681B681B6803F02003002B0BD130
:103970007B681B681A687B681B6822F00A021A6061
:103980007B68012283F821207B681B68384A9342B8
:1039900029D07B681B68374A934222D07B681B681A
:1039A000354A93421AD07B681B68344A934212D03E
:1039B0007B681B68324A93420AD07B681B68314A95
:1039C000934202D14FF400130EE04FF000730BE06E
:1039D0004FF4003308E04FF4005305E04FF4007358
:1039E00002E0202300E00223274A53607B68002284
:1039F00083F820207B689B6A002B34D07B689B6A0D
:103A0000786898472FE07B681B6C08229A40FB6817
:103A10001340002B28D0BB6803F00803002B23D0F1
:103A20007B681B681A687B681B6822F00E021A60AC
:103A30007B681A6C7B68DB6B012101FA02F25A6029
:103A40007B6801229A637B68012283F821207B68CE
:103A5000002283F820207B681B6B002B04D07B683E
:103A60001B6B7868984700BF00BF1037BD4680BD0C
:103A7000080002401C0002403000024044000240A6
:103A8000580002406C0002400000024080B485B043
:103A900000AFF860B9607A603B60FB681A6CFB6845
:103AA000DB6B012101FA02F25A60FB681B683A687D
:103AB0005A60FB685B68102B08D1FB681B687A684A
:103AC0009A60FB681B68BA68DA6007E0FB681B68ED
:103AD000BA689A60FB681B687A68DA6000BF1437BE
:103AE000BD4680BC7047000080B48BB000AF7860EA
:103AF000396000237B6200233B6269E101227B6A1B
:103B000002FA03F3FB613B681B68FA691340BB616F
:103B1000BA69FB699A4240F058813B685B689A4AEF
:103B200093425ED0984A934275D8984A934258D0AF
:103B3000964A93426FD8964A934252D0944A9342FF
:103B400069D8944A93424CD0924A934263D8924A9D
:103B5000934246D0904A93425DD8122B2AD8122B1A
:103B600059D801A252F823F0E33B0008BD3B0008FE
:103B7000CF3B0008113C0008173C0008173C000828
:103B8000173C0008173C0008173C0008173C0008C9
:103B9000173C0008173C0008173C0008173C0008B9
:103BA000173C0008173C0008173C0008C53B0008FC
:103BB000D93B0008794A934213D02CE03B68DB687C
:103BC0003B6229E03B68DB6804333B6224E03B68EE
:103BD000DB6808333B621FE03B68DB680C333B6209
:103BE0001AE03B689B68002B02D104233B6213E080
:103BF0003B689B68012B05D108233B627B68FA690F
:103C00001A6109E008233B627B68FA695A6103E0A4
:103C100000233B6200E000BFBB69FF2B01D87B683B
:103C200001E07B6804337B61BB69FF2B02D87B6AB0
:103C30009B0002E07B6A083B9B003B617B691A6842
:103C40000F213B6901FA03F3DB431A40396A3B69F0
:103C500001FA03F31A437B691A603B685B6803F05F
:103C60008053002B00F0B1804D4B9B694C4A43F0D0
:103C7000010393614A4B9B6903F00103BB60BB687E
:103C8000484A7B6A9B08023352F82330FB607B6A08
:103C900003F003039B000F2202FA03F3DB43FA68ED
:103CA0001340FB607B68404A934213D07B683F4AD5
:103CB00093420DD07B683E4A934207D07B683D4AD1
:103CC000934201D1032306E0042304E0022302E02F
:103CD000012300E000237A6A02F00302920093407D
:103CE000FA681343FB602F497B6A9B080233FA682A
:103CF00041F823203B685B6803F48013002B06D057
:103D00002D4B9A682C49BB6913438B6006E02A4B04
:103D10009A68BB69DB43284913408B603B685B684A
:103D200003F40013002B06D0234BDA682249BB6949
:103D30001343CB6006E0204BDA68BB69DB431E49C6
:103D40001340CB603B685B6803F40033002B06D064
:103D5000194B5A681849BB6913434B6006E0164B70
:103D60005A68BB69DB43144913404B603B685B688E
:103D700003F48033002B21D00F4B1A680E49BB6926
:103D800013430B6021E000BF00003210000031102F
:103D9000000022100000211000001210000011107D
:103DA000001002400000014000080140000C0140EA
:103DB0000010014000140140000401400B4B1A6840
:103DC000BB69DB43094913400B607B6A01337B62AB
:103DD0003B681A687B6A22FA03F3002B7FF48EAEED
:103DE00000BF00BF2C37BD4680BC704700040140B7
:103DF00080B485B000AF78600B467B807B689A68A2
:103E00007B881340002B02D00123FB7301E00023C9
:103E1000FB73FB7B18461437BD4680BC704780B4EB
:103E200083B000AF78600B467B8013467B707B7855
:103E3000002B03D07A887B681A6103E07B881A0420
:103E40007B681A6100BF0C37BD4680BC704700001C
:103E500080B584B000AF78607B68002B01D101236E
:103E60002BE17B6893F83D30DBB2002B06D17B68F9
:103E7000002283F83C207868FEF7EAFC7B68242265
:103E800083F83D207B681B681A687B681B6822F0FA
:103E900001021A607B681B681A687B681B6842F421
:103EA00000421A607B681B681A687B681B6822F4F2
:103EB00000421A6001F0CAFBF8607B685B68814AC7
:103EC000934207D8FB68804A934294BF01230023A2
:103ED000DBB206E0FB687D4A934294BF01230023D6
:103EE000DBB2002B01D00123E7E0FB68784AA2FB9C
:103EF00003239B0CBB607B681B685B6823F03F015E
:103F00007B681B68BA680A435A607B681B681B6A37
:103F100023F03F017B685B686A4A934202D8BB6822
:103F2000013309E0BB684FF4967202FB03F3694A60
:103F3000A2FB03239B0901337A6812680B431362C7
:103F40007B681B68DB6923F44F4222F0FF027B6829
:103F50005B685C498B4219D8FB68591E7B685B68BB
:103F60005B00B1FBF3F3591C40F6FC730B40002BD4
:103F70000AD0FB68591E7B685B685B00B1FBF3F3FA
:103F80000133C3F30B0351E004234FE07B689B68CC
:103F9000002B11D1FB68581E7B6859680B465B00EB
:103FA0000B44B0FBF3F30133C3F30B03002B0CBF43
:103FB00001230023DBB212E0FB68581E7B685968BE
:103FC0000B469B000B4499000B44B0FBF3F3013309
:103FD000C3F30B03002B0CBF01230023DBB2002B28
:103FE00001D0012322E07B689B68002B0ED1FB6887
:103FF000581E7B6859680B465B000B44B0FBF3F31B
:104000000133C3F30B0343F400430FE0FB68581E76
:104010007B6859680B469B000B4499000B44B0FB2E
:10402000F3F30133C3F30B0343F4404379680968A6
:104030001343CB617B681B681B6823F0C0017B685E
:10404000DA697B681B6A1A437B681B680A431A603B
:104050007B681B689B6823F4034323F0FF037A68A3
:1040600011697A68D26811437A6812680B439360C9
:104070007B681B68DB6823F0FF017B685A697B68FB
:104080009B691A437B681B680A43DA607B681B687C
:104090001A687B681B6842F001021A607B68002284
:1040A0001A647B68202283F83D207B6800221A6313
:1040B0007B68002283F83E20002318461037BD4657
:1040C00080BD00BFA08601007F841E00FF083D0068
:1040D00083DE1B43D34D621080B588B002AFF86019
:1040E0007A601A460B467B8113463B81FEF7B0FD92
:1040F0007861FB6893F83D30DBB2202B40F0E08024
:104100007B690093192301227049F86800F09EFC36
:104110000346002B01D00223D3E0FB6893F83C3028
:10412000012B01D10223CCE0FB68012283F83C2063
:10413000FB681B681B6803F00103012B07D0FB68B9
:104140001B681A68FB681B6842F001021A60FB6872
:104150001B681A68FB681B6822F400621A60FB681F
:10416000212283F83D20FB68102283F83E20FB6863
:1041700000221A64FB687A685A62FB683A895A8599
:10418000FB685B8D9AB2FB681A85FB68504ADA625D
:1041900079897B693A6AF86800F008FB0346002BCE
:1041A00001D001238DE000233B61FB681B685B6944
:1041B0003B61FB681B689B693B613B6966E07A6910
:1041C000396AF86800F05CFD0346002B0DD0FB68EF
:1041D0001B6C042B07D1FB681B681A68FB681B6803
:1041E00042F400721A6001236BE0FB685B6A1A7884
:1041F000FB681B681A61FB685B6A5A1CFB685A62A1
:10420000FB685B8D9BB2013B9AB2FB685A85FB68E9
:104210001B8D013B9AB2FB681A85FB681B685B69C2
:1042200003F00403042B1BD1FB681B8D002B17D05C
:10423000FB685B6A1A78FB681B681A61FB685B6A3B
:104240005A1CFB685A62FB685B8D9BB2013B9AB2B9
:10425000FB685A85FB681B8D013B9AB2FB681A8587
:104260007A69396AF86800F053FD0346002B0DD0D7
:10427000FB681B6C042B07D1FB681B681A68FB6882
:104280001B6842F400721A6001231AE0FB681B8D60
:10429000002B94D1FB681B681A68FB681B6842F40A
:1042A00000721A60FB68202283F83D20FB68002220
:1042B00083F83E20FB68002283F83C20002300E0C6
:1042C000022318461837BD4680BD00BF020010000B
:1042D0000000FFFF80B58CB002AFF8607A601A462C
:1042E0000B467B8113463B8100233B62FEF7B0FC0B
:1042F0007862FB6893F83D30DBB2202B40F04B82B4
:104300007B6A0093192301227F49F86800F09EFB25
:104310000346002B01D002233EE2FB6893F83C30B9
:10432000012B01D1022337E2FB68012283F83C20F4
:10433000FB681B681B6803F00103012B07D0FB68B7
:104340001B681A68FB681B6842F001021A60FB6870
:104350001B681A68FB681B6822F400621A60FB681D
:10436000222283F83D20FB68102283F83E20FB6860
:1043700000221A64FB687A685A62FB683A895A8597
:10438000FB685B8D9AB2FB681A85FB685F4ADA624C
:1043900079897B6A3A6BF86800F08AFA0346002B49
:1043A00001D00123F8E1FB681B8D002B13D1002302
:1043B000FB61FB681B685B69FB61FB681B689B69B1
:1043C000FB61FB69FB681B681A68FB681B6842F4A9
:1043D00000721A60CCE1FB681B8D012B1ED1FB68BB
:1043E0001B681A68FB681B6822F480621A6072B648
:1043F00000BF0023BB61FB681B685B69BB61FB6896
:104400001B689B69BB61BB69FB681B681A68FB681A
:104410001B6842F400721A6062B635E0FB681B8DBF
:10442000022B1ED1FB681B681A68FB681B6842F4EC
:1044300000621A6072B600BF00237B61FB681B68D4
:104440005B697B61FB681B689B697B617B69FB68BF
:104450001B681A68FB681B6822F480621A6062B6E7
:1044600012E0FB681B681A68FB681B6842F48062F4
:104470001A6000233B61FB681B685B693B61FB685A
:104480001B689B693B613B6972E1FB681B8D032BD9
:1044900000F21F81FB681B8D012B23D17A6A396BD7
:1044A000F86800F07DFC0346002B01D0012373E186
:1044B000FB681B681A69FB685B6AD2B21A70FB68FA
:1044C0005B6A5A1CFB685A62FB681B8D013B9AB2FF
:1044D000FB681A85FB685B8D9BB2013B9AB2FB6857
:1044E0005A8545E1FB681B8D022B52D17B6A0093F4
:1044F0003B6B00220649F86800F0A8FA0346002B3F
:1045000008D0012348E100BF020010000000FFFFB7
:104510000400010072B600BFFB681B681A68FB68E4
:104520001B6842F400721A60FB681B681A69FB681A
:104530005B6AD2B21A70FB685B6A5A1CFB685A62EB
:10454000FB681B8D013B9AB2FB681A85FB685B8D8B
:104550009BB2013B9AB2FB685A8562B600BFFB680A
:104560001B681A69FB685B6AD2B21A70FB685B6AE7
:104570005A1CFB685A62FB681B8D013B9AB2FB68B0
:104580001A85FB685B8D9BB2013B9AB2FB685A852A
:10459000EEE07B6A00933B6B00228149F86800F0F3
:1045A00055FA0346002B01D00123F5E0FB681B6898
:1045B0001A68FB681B6822F480621A6072B600BF3A
:1045C000FB681B681A69FB685B6AD2B21A70FB68E9
:1045D0005B6A5A1CFB685A62FB681B8D013B9AB2EE
:1045E000FB681A85FB685B8D9BB2013B9AB2FB6846
:1045F0005A856C4B1B68DB086B4AA2FB03231A0A23
:1046000013469B001344DA00D31A3B623B6A013B1A
:104610003B623B6A002B18D1FB6800221A63FB68DF
:10462000202283F83D20FB68002283F83E20FB68AF
:104630001B6C43F02002FB681A6462B600BFFB6883
:10464000002283F83C200123A6E0FB681B685B691D
:1046500003F00403042BD9D1FB681B681A68FB68BC
:104660001B6842F400721A60FB681B681A69FB68D9
:104670005B6AD2B21A70FB685B6A5A1CFB685A62AA
:10468000FB681B8D013B9AB2FB681A85FB685B8D4A
:104690009BB2013B9AB2FB685A8562B600BFFB68C9
:1046A0001B681A69FB685B6AD2B21A70FB685B6AA6
:1046B0005A1CFB685A62FB681B8D013B9AB2FB686F
:1046C0001A85FB685B8D9BB2013B9AB2FB685A85E9
:1046D0004EE07A6A396BF86800F062FB0346002B03
:1046E00001D0012358E0FB681B681A69FB685B6A0C
:1046F000D2B21A70FB685B6A5A1CFB685A62FB688C
:104700001B8D013B9AB2FB681A85FB685B8D9BB2DF
:10471000013B9AB2FB685A85FB681B685B6903F032
:104720000403042B24D1FB681B8D032B07D1FB68EA
:104730001B681A68FB681B6822F480621A60FB68B9
:104740001B681A69FB685B6AD2B21A70FB685B6A05
:104750005A1CFB685A62FB681B8D013B9AB2FB68CE
:104760001A85FB685B8D9BB2013B9AB2FB685A8548
:10477000FB681B8D002B7FF488AEFB68202283F83A
:104780003D20FB68002283F83E20FB68002283F86E
:104790003C20002300E0022318462837BD4680BD98
:1047A000040001001800002089B5F81480B588B015
:1047B00002AFF8607A603B600B467B81FB68DB6A86
:1047C0007B617B69082B06D07B69012B03D07B6959
:1047D00013F5803F08D1FB681B681A68FB681B68EB
:1047E00042F480721A600BE0FB681B6B122B07D13E
:1047F000FB681B681A68FB681B6842F480721A60C9
:104800003B6800937B6800224FF00111F86800F0CC
:104810001DF90346002B0DD0FB681B681B6803F4D1
:104820008073B3F5807F03D1FB684FF400721A6484
:10483000032335E0FB681B69B3F5804F08D17B8902
:10484000DBB21A46FB681B6802F0FE021A611BE02D
:104850007B89DB11DBB203F00603DBB263F00F03ED
:10486000DAB2FB681B681A613B687A680E49F8681F
:1048700000F066F90346002B01D0012310E07B898C
:10488000DAB2FB681B681A613B687A680749F86806
:1048900000F056F90346002B01D0012300E000236D
:1048A00018461837BD4680BD08000100020001000F
:1048B00080B588B002AFF8607A603B600B467B81C0
:1048C000FB68DB6A7B61FB681B681A68FB681B6816
:1048D00042F480621A607B69082B06D07B69012B49
:1048E00003D07B6913F5803F08D1FB681B681A6809
:1048F000FB681B6842F480721A600BE0FB681B6B5C
:10490000112B07D1FB681B681A68FB681B6842F40F
:1049100080721A603B6800937B6800224FF001119F
:10492000F86800F093F80346002B0DD0FB681B6875
:104930001B6803F48073B3F5807F03D1FB684FF4E9
:1049400000721A64032379E0FB681B69B3F5804F9A
:1049500008D17B89DBB243F00103DAB2FB681B6844
:104960001A615FE07B89DB11DBB203F00603DBB287
:1049700063F00F03DAB2FB681B681A613B687A6860
:104980003049F86800F0DCF80346002B01D0012321
:1049900054E07B89DAB2FB681B681A613B687A686D
:1049A0002949F86800F0CCF80346002B01D0012318
:1049B00044E000233B61FB681B685B693B61FB686B
:1049C0001B689B693B613B69FB681B681A68FB6855
:1049D0001B6842F480721A603B6800937B68002277
:1049E0004FF00111F86800F031F80346002B0DD0AC
:1049F000FB681B681B6803F48073B3F5807F03D1E9
:104A0000FB684FF400721A64032317E07B89DB1103
:104A1000DBB203F00603DBB263F00E03DAB2FB682D
:104A20001B681A613B687A680749F86800F088F8E3
:104A30000346002B01D0012300E00023184618375D
:104A4000BD4680BD080001000200010080B584B0B1
:104A500000AFF860B9603B601346FB7148E03B680B
:104A6000B3F1FF3F44D0FEF7F3F80246BB69D31A17
:104A70003A689A4202D33B68002B39D1BB681B0CC1
:104A8000DBB2012B0DD1FB681B685B69DA43BB68A5
:104A900013409BB2002B0CBF01230023DBB21A464C
:104AA0000CE0FB681B689B69DA43BB6813409BB250
:104AB000002B0CBF01230023DBB21A46FB799A427C
:104AC00016D1FB6800221A63FB68202283F83D2080
:104AD000FB68002283F83E20FB681B6C43F0200239
:104AE000FB681A64FB68002283F83C20012323E062
:104AF000BB681B0CDBB2012B0DD1FB681B685B692B
:104B0000DA43BB6813409BB2002B0CBF0123002388
:104B1000DBB21A460CE0FB681B689B69DA43BB6892
:104B200013409BB2002B0CBF01230023DBB21A46BB
:104B3000FB799A4293D0002318461037BD4680BDBA
:104B400080B584B000AFF860B9607A603B6071E016
:104B5000FB681B685B6903F48063B3F5806F23D146
:104B6000FB681B681A68FB681B6842F400721A60D5
:104B7000FB681B686FF480625A61FB6800221A634D
:104B8000FB68202283F83D20FB68002283F83E204A
:104B9000FB681B6C43F00402FB681A64FB6800228C
:104BA00083F83C20012367E07B68B3F1FF3F41D0ED
:104BB000FEF74EF802463B68D31A7A689A4202D34F
:104BC0007B68002B36D1BB681B0CDBB2012B0CD1F0
:104BD000FB681B685B69DA43BB6813409BB2002B20
:104BE00014BF01230023DBB20BE0FB681B689B6949
:104BF000DA43BB6813409BB2002B14BF0123002390
:104C0000DBB2002B16D0FB6800221A63FB6820225F
:104C100083F83D20FB68002283F83E20FB681B6C74
:104C200043F02002FB681A64FB68002283F83C20F2
:104C3000012321E0BB681B0CDBB2012B0CD1FB680C
:104C40001B685B69DA43BB6813409BB2002B14BF3F
:104C500001230023DBB20BE0FB681B689B69DA438E
:104C6000BB6813409BB2002B14BF01230023DBB2AF
:104C7000002B7FF46DAF002318461037BD4680BD72
:104C800080B584B000AFF860B9607A6034E0F8684D
:104C900000F0E3F80346002B01D0012334E0BB68A9
:104CA000B3F1FF3F28D0FDF7D3FF02467B68D31A4C
:104CB000BA689A4202D3BB68002B1DD1FB681B68FF
:104CC0005B6903F08003802B16D0FB6800221A6317
:104CD000FB68202283F83D20FB68002283F83E20F9
:104CE000FB681B6C43F02002FB681A64FB6800221F
:104CF00083F83C20012307E0FB681B685B6903F035
:104D00008003802BC3D1002318461037BD4680BDD9
:104D100080B584B000AFF860B9607A6034E0F868BC
:104D200000F09BF80346002B01D0012334E0BB6860
:104D3000B3F1FF3F28D0FDF78BFF02467B68D31A03
:104D4000BA689A4202D3BB68002B1DD1FB681B686E
:104D50005B6903F00403042B16D0FB6800221A637E
:104D6000FB68202283F83D20FB68002283F83E2068
:104D7000FB681B6C43F02002FB681A64FB6800228E
:104D800083F83C20012307E0FB681B685B6903F0A4
:104D90000403042BC3D1002318461037BD4680BD41
:104DA00080B584B000AFF860B9607A6049E0FB6814
:104DB0001B685B6903F01003102B19D1FB681B689B
:104DC0006FF010025A61FB6800221A63FB68202210
:104DD00083F83D20FB68002283F83E20FB681A6CB4
:104DE000FB681A64FB68002283F83C20012330E052
:104DF000FDF72EFF02467B68D31ABA689A4202D3A7
:104E0000BB68002B1DD1FB681B685B6903F0400386
:104E1000402B16D0FB6800221A63FB68202283F81F
:104E20003D20FB68002283F83E20FB681B6C43F0AA
:104E30002002FB681A64FB68002283F83C200123EF
:104E400007E0FB681B685B6903F04003402BAED1B1
:104E5000002318461037BD4680BD80B483B000AF34
:104E600078607B681B685B6903F48063B3F5806FCF
:104E70001BD17B681B686FF480625A617B680022DB
:104E80001A637B68202283F83D207B68002283F828
:104E90003E207B681B6C43F004027B681A647B68CD
:104EA000002283F83C20012300E0002318460C3741
:104EB000BD4680BC7047000080B586B000AF78600A
:104EC0007B68002B01D1012372E27B681B6803F031
:104ED0000103002B00F08780924B5B6803F00C030A
:104EE000042B0CD08F4B5B6803F00C03082B12D102
:104EF0008C4B5B6803F48033B3F5803F0BD1894B57
:104F00001B6803F40033002B6CD07B685B68002BBC
:104F100068D101234CE27B685B68B3F5803F06D122
:104F2000804B1B687F4A43F4803313602EE07B681C
:104F30005B68002B0CD17B4B1B687A4A23F48033CF
:104F40001360784B1B68774A23F4802313601DE0BD
:104F50007B685B68B3F5A02F0CD1724B1B68714A5C
:104F600043F4802313606F4B1B686E4A43F4803315
:104F700013600BE06B4B1B686A4A23F480331360A9
:104F8000684B1B68674A23F4802313607B685B6867
:104F9000002B13D0FDF75CFE386108E0FDF758FEEA
:104FA00002463B69D31A642B01D9032300E25D4B0F
:104FB0001B6803F40033002BF0D014E0FDF748FE2B
:104FC000386108E0FDF744FE02463B69D31A642BC2
:104FD00001D90323ECE1534B1B6803F40033002B8E
:104FE000F0D100E000BF7B681B6803F00203002BD8
:104FF00063D04C4B5B6803F00C03002B0BD0494B88
:105000005B6803F00C03082B1CD1464B5B6803F470
:105010008033002B16D1434B1B6803F00203002B97
:1050200005D07B681B69012B01D00123C0E13D4BFA
:105030001B6823F0F8027B685B69DB003949134386
:105040000B603AE07B681B69002B20D0364B0122B5
:105050001A60FDF7FDFD386108E0FDF7F9FD024635
:105060003B69D31A022B01D90323A1E12D4B1B6805
:1050700003F00203002BF0D02A4B1B6823F0F80248
:105080007B685B69DB00274913430B6015E0264B07
:1050900000221A60FDF7DCFD386108E0FDF7D8FD5D
:1050A00002463B69D31A022B01D9032380E11D4B31
:1050B0001B6803F00203002BF0D17B681B6803F030
:1050C0000803002B3AD07B689B69002B19D0174B43
:1050D00001221A60FDF7BCFD386108E0FDF7B8FD5C
:1050E00002463B69D31A022B01D9032360E10D4B21
:1050F0005B6A03F00203002BF0D0012000F0BAFA43
:105100001CE00A4B00221A60FDF7A2FD38610FE097
:10511000FDF79EFD02463B69D31A022B08D90323F3
:1051200046E100BF001002400000424280044242BB
:10513000924B5B6A03F00203002BE9D17B681B688A
:1051400003F00403002B00F0A6800023FB758B4BBB
:10515000DB6903F08053002B0DD1884BDB69874A54
:1051600043F08053D361854BDB6903F08053BB6010
:10517000BB680123FB75824B1B6803F48073002B13
:1051800018D17F4B1B687E4A43F480731360FDF790
:105190005FFD386108E0FDF75BFD02463B69D31A0D
:1051A000642B01D9032303E1754B1B6803F480735F
:1051B000002BF0D07B68DB68012B06D16F4B1B6A9C
:1051C0006E4A43F0010313622DE07B68DB68002B1D
:1051D0000CD16A4B1B6A694A23F001031362674BC7
:1051E0001B6A664A23F0040313621CE07B68DB68D9
:1051F000052B0CD1614B1B6A604A43F00403136218
:105200005E4B1B6A5D4A43F0010313620BE05B4B8C
:105210001B6A5A4A23F001031362584B1B6A574A10
:1052200023F0040313627B68DB68002B15D0FDF7C5
:105230000FFD38610AE0FDF70BFD02463B69D31A0A
:1052400041F28832934201D90323B1E04B4B1B6AF0
:1052500003F00203002BEED014E0FDF7F9FC3861F7
:105260000AE0FDF7F5FC02463B69D31A41F28832A9
:10527000934201D903239BE0404B1B6A03F00203D6
:10528000002BEED1FB7D012B05D13C4BDB693B4A6A
:1052900023F08053D3617B68DB69002B00F08780AB
:1052A000364B5B6803F00C03082B61D07B68DB692D
:1052B000022B46D1334B00221A60FDF7C9FC38613E
:1052C00008E0FDF7C5FC02463B69D31A022B01D961
:1052D00003236DE0294B1B6803F00073002BF0D112
:1052E0007B681B6AB3F5803F08D1244B5B6823F4CD
:1052F00000327B689B68214913434B601F4B5B68FE
:1053000023F474127B68196A7B685B6A0B431B4940
:1053100013434B601B4B01221A60FDF799FC386167
:1053200008E0FDF795FC02463B69D31A022B01D930
:1053300003233DE0114B1B6803F00073002BF0D0FA
:1053400035E0104B00221A60FDF782FC386108E05E
:10535000FDF77EFC02463B69D31A022B01D90323D9
:1053600026E0064B1B6803F00073002BF0D11EE013
:105370007B68DB69012B07D1012319E00010024093
:1053800000700040600042420B4B5B68FB60FB68B2
:1053900003F480327B681B6A9A4206D1FB6803F4EF
:1053A00070127B685B6A9A4201D0012300E00023FF
:1053B00018461837BD4680BD0010024080B584B045
:1053C00000AF786039607B68002B01D10123D0E009
:1053D0006A4B1B6803F007033A689A4210D9674B7F
:1053E0001B6823F0070265493B6813430B60634B5E
:1053F0001B6803F007033A689A4201D00123B8E022
:105400007B681B6803F00203002B20D07B681B68BD
:1054100003F00403002B05D0594B5B68584A43F452
:10542000E06353607B681B6803F00803002B05D022
:10543000534B5B68524A43F460535360504B5B6874
:1054400023F0F0027B689B684D4913434B607B68F7
:105450001B6803F00103002B40D07B685B68012BC5
:1054600007D1474B1B6803F40033002B15D10123F0
:105470007FE07B685B68022B07D1414B1B6803F020
:105480000073002B09D1012373E03D4B1B6803F02F
:105490000203002B01D101236BE0394B5B6823F041
:1054A00003027B685B68364913434B60FDF7D0FB12
:1054B000F8600AE0FDF7CCFB0246FB68D31A41F224
:1054C0008832934201D9032353E02D4B5B6803F0EC
:1054D0000C027B685B689B009A42EBD1274B1B68F0
:1054E00003F007033A689A4210D2244B1B6823F05A
:1054F000070222493B6813430B60204B1B6803F0F3
:1055000007033A689A4201D0012332E07B681B68A6
:1055100003F00403002B08D0194B5B6823F4E0620E
:105520007B68DB68164913434B607B681B6803F09C
:105530000803002B09D0124B5B6823F460527B6890
:105540001B69DB000E4913434B6000F021F8024653
:105550000B4B5B681B0903F00F030A49CB5C22FA73
:1055600003F3094A1360094B1B681846FDF72EFB2D
:10557000002318461037BD4680BD00BF0020024002
:105580000010024034A60008180000201C00002073
:1055900080B487B000AF0023FB600023BB60002312
:1055A0007B6100237B6000233B611E4B5B68FB60DB
:1055B000FB6803F00C03042B02D0082B03D027E078
:1055C000194B3B6127E0FB689B0C03F00F03174A64
:1055D000D35C7B60FB6803F48033002B10D0114B4D
:1055E0005B685B0C03F00103114AD35CBB607B6812
:1055F0000D4A03FB02F2BB68B2FBF3F37B6104E0EC
:105600007B680C4A02FB03F37B617B693B6102E030
:10561000054B3B6100BF3B6918461C37BD4680BC4B
:10562000704700BF0010024000127A004CA600082C
:105630005CA6000800093D0080B400AF024B1B6867
:105640001846BD4680BC70471800002080B500AFEA
:10565000FFF7F2FF0246054B5B681B0A03F00703E6
:105660000349CB5C22FA03F3184680BD00100240C8
:1056700044A6000880B485B000AF78600A4B1B6870
:105680000A4AA2FB03235B0A7A6802FB03F3FB606E
:1056900000BFFB685A1EFA60002BF9D100BF00BFA3
:1056A0001437BD4680BC704718000020D34D6210EF
:1056B00080B586B000AF786000233B610023FB60BB
:1056C0007B681B6803F00103002B7DD00023FB7572
:1056D0004F4BDB6903F08053002B0DD14C4BDB6942
:1056E0004B4A43F08053D361494BDB6903F080534D
:1056F000BB60BB680123FB75464B1B6803F48073DA
:10570000002B18D1434B1B68424A43F4807313604B
:10571000FDF79EFA386108E0FDF79AFA02463B6908
:10572000D31A642B01D903236DE03A4B1B6803F4B1
:105730008073002BF0D0364B1B6A03F44073FB6080
:10574000FB68002B2ED07B685B6803F44073FA681B
:105750009A4227D02E4B1B6A23F44073FB602E4BDA
:1057600001221A602C4B00221A60294AFB6813623E
:10577000FB6803F00103002B14D0FDF769FA3861D0
:105780000AE0FDF765FA02463B69D31A41F2883216
:10579000934201D9032336E01D4B1B6A03F0020339
:1057A000002BEED01A4B1B6A23F440727B685B68B7
:1057B000174913430B62FB7D012B05D1144BDB69A9
:1057C000134A23F08053D3617B681B6803F0020304
:1057D000002B08D00E4B5B6823F440427B689B682B
:1057E0000B4913434B607B681B6803F01003002BCD
:1057F00008D0074B5B6823F480027B68DB680449B0
:1058000013434B60002318461837BD4680BD00BFC8
:1058100000100240007000404004424280B582B057
:1058200000AF78607B68002B01D1012341E07B68E9
:1058300093F83D30DBB2002B06D17B68002283F861
:105840003C207868FDF770F87B68022283F83D20E1
:105850007B681A687B6804331946104600F040F9EB
:105860007B68012283F846207B68012283F83E2072
:105870007B68012283F83F207B68012283F8402067
:105880007B68012283F841207B68012283F8422053
:105890007B68012283F843207B68012283F844203F
:1058A0007B68012283F845207B68012283F83D2034
:1058B000002318460837BD4680BD000080B485B07F
:1058C00000AF78607B6893F83D30DBB2012B01D0EC
:1058D000012332E07B68022283F83D207B681B684D
:1058E000184A93420ED07B681B68B3F1804F09D0F1
:1058F0007B681B68144A934204D07B681B68134A78
:10590000934211D17B681B689B6803F00703FB601F
:10591000FB68062B10D07B681B681A687B681B68C5
:1059200042F001021A6007E07B681B681A687B6816
:105930001B6842F001021A60002318461437BD4666
:1059400080BC7047002C014000040040000800406B
:1059500080B584B000AF786039600023FB737B684A
:1059600093F83C30012B01D10223B4E07B68012283
:1059700083F83C207B68022283F83D207B681B680B
:105980009B68BB60BB6823F07703BB60BB6823F4F4
:105990007F43BB607B681B68BA689A603B681B6882
:1059A000B3F5005F3ED0B3F5005F00F28780B3F53A
:1059B000805F00F08680B3F5805F7FD8702B1AD0AF
:1059C000702B7BD8602B50D0602B77D8502B3CD0DD
:1059D000502B73D8402B58D0402B6FD8302B64D02D
:1059E000302B6BD8202B60D0202B67D8002B5CD0BD
:1059F000102B5AD062E07B6818683B6899683B6856
:105A00005A683B68DB6800F044F97B681B689B6858
:105A1000BB60BB6843F07703BB607B681B68BA68F8
:105A20009A604FE07B6818683B6899683B685A68E1
:105A30003B68DB6800F02DF97B681B689A687B681F
:105A40001B6842F480429A603CE07B6818683B68BF
:105A500059683B68DB681A4600F0A4F87B681B684D
:105A60005021184600F0FBF82CE07B6818683B6872
:105A700059683B68DB681A4600F0C2F87B681B680F
:105A80006021184600F0EBF81CE07B6818683B6862
:105A900059683B68DB681A4600F084F87B681B682D
:105AA0004021184600F0DBF80CE07B681A683B6880
:105AB0001B681946104600F0D2F803E00123FB737F
:105AC00000E000BF7B68012283F83D207B68002254
:105AD00083F83C20FB7B18461037BD4680BD000094
